:100000000C945D000C9485000C9485000C94850084
:100010000C9485000C9485000C9485000C9485004C
:100020000C9485000C9485000C9485000C9485003C
:100030000C9485000C9485000C9485000C9485002C
:100040000C947A020C9485000C94EA020C94C4027D
:100050000C9485000C9485000C9485000C9485000C
:100060000C9485000C94850000000008000201003B
:100070000003040700000000000000000000000072
:10008000250028002B0000000000240027002A0083
:10009000040404040404040402020202020203032E
:1000A0000303030301020408102040800102040836
:1000B00010200102040810201C0311241FBECFEFE2
:1000C000D8E0DEBFCDBF11E0A0E0B1E0EEEBF9E09B
:1000D00002C005900D92AE31B107D9F722E0AEE132
:1000E000B1E001C01D92A135B207E1F710E0CDE506
:1000F000D0E004C02197FE010E94D704CC35D1077F
:10010000C9F70E9452030C94DD040C94000090E0A7
:10011000FC01EC55FF4F249180579F4FFC018491C7
:10012000882399F090E0880F991FFC01EA57FF4F50
:10013000A591B491FC01E458FF4F859194918FB73C
:10014000F894EC91E22BEC938FBF0895E62FF0E04A
:10015000EB5BFD4F21E030E001C0220F8A95EAF70A
:100160008481822B84830895E62FF0E0EB5BFD4FC2
:1001700021E030E001C0220F8A95EAF720958481C2
:1001800028232483089590E0FC01E859FF4F24912F
:10019000FC01EC55FF4F3491FC01E057FF4FE49117
:1001A000EE23C9F0222339F0233001F1A8F42130E5
:1001B00019F1223029F1F0E0EE0FFF1FE458FF4F54
:1001C000A591B4918FB7F894EC91611126C0309548
:1001D0003E233C938FBF08952730A9F02830C9F003
:1001E000243049F7809180008F7D03C0809180008A
:1001F0008F7780938000DFCF84B58F7784BDDBCF8E
:1002000084B58F7DFBCF8091B0008F778093B00055
:10021000D2CF8091B0008F7DF9CF3E2BDACFCF9334
:10022000DF93D82FC62F60E0809145020E94C30063
:10023000DEBD00000DB407FEFDCF8EB5CEBD0000C3
:100240000DB407FEFDCF8EB561E080914502DF91D0
:10025000CF910C94C3003FB7F8948091A401909182
:10026000A501A091A601B091A70126B5A89B05C044
:100270002F3F19F00196A11DB11D3FBFBA2FA92F25
:10028000982F8827BC01CD01620F711D811D911D22
:1002900042E0660F771F881F991F4A95D1F708958E
:1002A000AF92BF92CF92DF92EF92FF920F931F9384
:1002B000CF93DF936C017B018B01040F151FEB01C2
:1002C0005E01AE18BF08C017D10759F06991D60179
:1002D000ED91FC910190F081E02DC6010995892BEB
:1002E00079F7C501DF91CF911F910F91FF90EF90AA
:1002F000DF90CF90BF90AF900895FC01538D448D57
:10030000252F30E0842F90E0821B930B541710F0C0
:10031000CF96089501970895FC01918D828D9817CD
:1003200061F0A28DAE0FBF2FB11D5D968C91928DA5
:100330009F5F9F73928F90E008958FEF9FEF0895D6
:10034000FC01918D828D981731F0828DE80FF11D9F
:10035000858D90E008958FEF9FEF0895FC01918DBA
:10036000228D892F90E0805C9F4F821B91098F73B3
:100370009927089588EA91E00E94AE0121E0892B37
:1003800009F420E0822F089580E090E0892B29F085
:100390000E94BA0181110C9400000895FC01A48D03
:1003A000A80FB92FB11DA35ABF4F2C91848D90E097
:1003B00001968F739927848FA689B7892C93A0897A
:1003C000B1898C91837080648C93938D848D981304
:1003D00006C00288F389E02D80818F7D8083089597
:1003E000EF92FF920F931F93CF93DF93EC0181E085
:1003F000888F9B8D8C8D98131AC0E889F98980812C
:1004000085FF15C09FB7F894EE89FF896083E8895E
:10041000F98980818370806480839FBF81E090E050
:10042000DF91CF911F910F91FF90EF900895F62EDD
:100430000B8D10E00F5F1F4F0F731127E02E8C8D77
:100440008E110CC00FB607FCFACFE889F9898081BC
:1004500085FFF5CFCE010E94CE01F1CFEB8DEC0FE1
:10046000FD2FF11DE35AFF4FF0829FB7F8940B8FD9
:10047000EA89FB8980818062CFCFCF93DF93EC0143
:10048000888D8823B9F0AA89BB89E889F9898C917C
:1004900085FD03C0808186FD0DC00FB607FCF7CF38
:1004A0008C9185FFF2CF808185FFEDCFCE010E9438
:1004B000CE01E9CFDF91CF910895CF93DF93FC0177
:1004C00001900020E9F73197AF01481B590BBC019F
:1004D00088EA91E00E945001EC0142E050E062E1C4
:1004E00071E088EA91E00E9450018C0F9D1FDF911E
:1004F000CF9108951F920F920FB60F9211242F9350
:100500003F938F939F93AF93BF938091A00190915E
:10051000A101A091A201B091A30130919F0123E01C
:10052000230F2D3758F50196A11DB11D20939F0172
:100530008093A0019093A101A093A201B093A30185
:100540008091A4019091A501A091A601B091A7016D
:100550000196A11DB11D8093A4019093A501A093C4
:10056000A601B093A701BF91AF919F918F913F9149
:100570002F910F900FBE0F901F90189526E8230F14
:100580000296A11DB11DD2CF1F920F920FB60F92EE
:1005900011242F933F934F935F936F937F938F9388
:1005A0009F93AF93BF93EF93FF9388EA91E00E94EC
:1005B000CE01FF91EF91BF91AF919F918F917F916C
:1005C0006F915F914F913F912F910F900FBE0F90C0
:1005D0001F9018951F920F920FB60F9211242F9310
:1005E0008F939F93EF93FF93E091B801F091B9013E
:1005F0008081E091BE01F091BF0182FD1BC090811E
:100600008091C1018F5F8F732091C201821741F0E9
:10061000E091C101F0E0E855FE4F958F8093C10154
:10062000FF91EF919F918F912F910F900FBE0F909F
:100630001F9018958081F4CFE8EAF1E013821282CE
:1006400088EE93E0A0E0B0E084839583A683B7832F
:1006500084E091E09183808385EC90E095878487A6
:1006600084EC90E09787868780EC90E0918B808B7C
:1006700081EC90E0938B828B82EC90E0958B848B65
:1006800086EC90E0978B868B118E128E138E148ED3
:10069000E5E4F2E08AE080838AE281838EE282836D
:1006A00013820895789484B5826084BD84B5816096
:1006B00084BD85B5826085BD85B5816085BD80912D
:1006C0006E00816080936E001092810080918100A5
:1006D000826080938100809181008160809381009D
:1006E000809180008160809380008091B10084605F
:1006F0008093B1008091B00081608093B0008091C0
:100700007A00846080937A0080917A00826080937E
:100710007A0080917A00816080937A0080917A00DB
:10072000806880937A001092C100E9E4F2E088E0EA
:10073000DF011D928A95E9F7CFB7F89480911E01E9
:10074000811124C0EAE9F0E08491EEEAF0E09491AE
:10075000E82FF0E0EE0FFF1FEA57FF4FA591B4918D
:10076000EC91E92321F461E08AE00E94C3008AE071
:100770000E9487008CB580618CBD8CB580648CBD77
:100780008DE00E9487008BE00E94870080911E010F
:100790008F5F80931E01CFBF809145020E9487002A
:1007A00061E08CE00E940F0160E089E00E940F018F
:1007B0006FEF8BE00E940F0160E08AE00E940F0162
:1007C00060E08FE00E940F0181E080937A018093C6
:1007D0007B01809382018093830197E6892E91E0CB
:1007E000992E2FE5C22E21E0D22E3FE1632E31E07B
:1007F000732E47E5442E41E0542E10E000E05601F0
:1008000016017301D0E0C0E080E00115110521F070
:10081000F201EC0FFD1F8081209741F0F501319727
:10082000908191118F5FC730D10521F0F501918141
:1008300091118F5F0730110531F0F401EC0FFD1FAE
:10084000908191118F5FD1019D911D0191118AC0FD
:10085000811191C0F7011082602F8C2F0E94B4008B
:100860002196FFEFEF1AFF0A2FEFA21AB20AC83043
:10087000D10551F60F5F1F4F88E0880E911C98E05C
:10088000C90ED11CA8E06A0E711CB8E04B0E511CB9
:100890000830110509F0B3CF80E4EFE1F1E0AFE5F6
:1008A000B1E001900D928A95E1F709E412E0C1E010
:1008B000F80161918F018C2F0E940F0180914802F5
:1008C0008823A1F0F8013197F080D8E060914602CA
:1008D000F7FE6091470288EA91E00E94F001FF0C68
:1008E000D150A1F784E191E00E945D02CF5FC93051
:1008F000F9F680914802882321F085E191E00E9479
:100900005D020E942B014B015C018AEFC82ED12CA5
:10091000E12CF12C0E942B01681979098A099B09A5
:10092000683E734081059105A8F3F1E0CF1AD10824
:10093000E108F10828EE820E23E0921EA11CB11CF2
:10094000C114D104E104F10429F7E0E0F0E0EF2B59
:1009500009F443CF0E94BA01882309F43ECF0E94D4
:1009600000003BCF81110CC0D7011C92602F8C2F4F
:100970000E94A60075CF813041F4F70180836CCFCF
:10098000813049F4D7018C93F1CF823051F421E0CA
:10099000F701208361CF823039F4E1E0D701EC9395
:1009A000E5CFD7011C9258CFF7011082DFCFEE0FB1
:0E09B000FF1F0590F491E02D0994F894FFCFFD
:1009BE0000000000F00150017D013D02AE018C01EE
:0E09CE00A0010D0A002D2D2D2D2D2D2D2D00FB
:00000001FF
